{
  "contractName": "ToDoList",
  "abi": [
    {
      "anonymous": false,
      "inputs": [
        {
          "indexed": false,
          "internalType": "uint256",
          "name": "id",
          "type": "uint256"
        },
        {
          "indexed": false,
          "internalType": "bool",
          "name": "completed",
          "type": "bool"
        }
      ],
      "name": "TaskCompleted",
      "type": "event"
    },
    {
      "anonymous": false,
      "inputs": [
        {
          "indexed": false,
          "internalType": "uint256",
          "name": "id",
          "type": "uint256"
        },
        {
          "indexed": false,
          "internalType": "string",
          "name": "content",
          "type": "string"
        },
        {
          "indexed": false,
          "internalType": "bool",
          "name": "completed",
          "type": "bool"
        }
      ],
      "name": "TaskCreated",
      "type": "event"
    },
    {
      "inputs": [],
      "name": "taskCount",
      "outputs": [
        {
          "internalType": "uint256",
          "name": "",
          "type": "uint256"
        }
      ],
      "stateMutability": "view",
      "type": "function"
    },
    {
      "inputs": [
        {
          "internalType": "uint256",
          "name": "",
          "type": "uint256"
        }
      ],
      "name": "tasks",
      "outputs": [
        {
          "internalType": "uint256",
          "name": "id",
          "type": "uint256"
        },
        {
          "internalType": "string",
          "name": "content",
          "type": "string"
        },
        {
          "internalType": "bool",
          "name": "completed",
          "type": "bool"
        }
      ],
      "stateMutability": "view",
      "type": "function"
    },
    {
      "inputs": [
        {
          "internalType": "string",
          "name": "_content",
          "type": "string"
        }
      ],
      "name": "createTask",
      "outputs": [],
      "stateMutability": "nonpayable",
      "type": "function"
    },
    {
      "inputs": [
        {
          "internalType": "uint256",
          "name": "_id",
          "type": "uint256"
        }
      ],
      "name": "toggleCompleted",
      "outputs": [],
      "stateMutability": "nonpayable",
      "type": "function"
    }
  ],
  "bytecode": "0x60806040526000805534801561001457600080fd5b5061089f806100246000396000f3fe608060405234801561001057600080fd5b506004361061004c5760003560e01c8063111002aa14610051578063455f50241461006d5780638d97767214610089578063b6cb58a5146100bb575b600080fd5b61006b60048036038101906100669190610521565b6100d9565b005b61008760048036038101906100829190610562565b6101af565b005b6100a3600480360381019061009e9190610562565b61033c565b6040516100b293929190610626565b60405180910390f35b6100c36103fb565b6040516100d091906105e2565b60405180910390f35b6000808154809291906100eb9061076b565b91905055506040518060600160405280600054815260200182815260200160001515815250600160008054815260200190815260200160002060008201518160000155602082015181600101908051906020019061014a929190610401565b5060408201518160020160006101000a81548160ff0219169083151502179055509050507f05d0fb833127fc08168556d0e7ca9554fc3f6bc843b3b7d2bf1c35aea6bab6606000548260006040516101a493929190610626565b60405180910390a150565b600060016000838152602001908152602001600020604051806060016040529081600082015481526020016001820180546101e990610739565b80601f016020809104026020016040519081016040528092919081815260200182805461021590610739565b80156102625780601f1061023757610100808354040283529160200191610262565b820191906000526020600020905b81548152906001019060200180831161024557829003601f168201915b505050505081526020016002820160009054906101000a900460ff161515151581525050905080604001511581604001901515908115158152505080600160008481526020019081526020016000206000820151816000015560208201518160010190805190602001906102d7929190610401565b5060408201518160020160006101000a81548160ff0219169083151502179055509050507fe21fa966ca5cd02748c0752352d18c48165e61cb55b4c29cccf924b5a95fcff18282604001516040516103309291906105fd565b60405180910390a15050565b600160205280600052604060002060009150905080600001549080600101805461036590610739565b80601f016020809104026020016040519081016040528092919081815260200182805461039190610739565b80156103de5780601f106103b3576101008083540402835291602001916103de565b820191906000526020600020905b8154815290600101906020018083116103c157829003601f168201915b5050505050908060020160009054906101000a900460ff16905083565b60005481565b82805461040d90610739565b90600052602060002090601f01602090048101928261042f5760008555610476565b82601f1061044857805160ff1916838001178555610476565b82800160010185558215610476579182015b8281111561047557825182559160200191906001019061045a565b5b5090506104839190610487565b5090565b5b808211156104a0576000816000905550600101610488565b5090565b60006104b76104b284610695565b610664565b9050828152602081018484840111156104cf57600080fd5b6104da8482856106f7565b509392505050565b600082601f8301126104f357600080fd5b81356105038482602086016104a4565b91505092915050565b60008135905061051b81610852565b92915050565b60006020828403121561053357600080fd5b600082013567ffffffffffffffff81111561054d57600080fd5b610559848285016104e2565b91505092915050565b60006020828403121561057457600080fd5b60006105828482850161050c565b91505092915050565b610594816106e1565b82525050565b60006105a5826106c5565b6105af81856106d0565b93506105bf818560208601610706565b6105c881610841565b840191505092915050565b6105dc816106ed565b82525050565b60006020820190506105f760008301846105d3565b92915050565b600060408201905061061260008301856105d3565b61061f602083018461058b565b9392505050565b600060608201905061063b60008301866105d3565b818103602083015261064d818561059a565b905061065c604083018461058b565b949350505050565b6000604051905081810181811067ffffffffffffffff8211171561068b5761068a610812565b5b8060405250919050565b600067ffffffffffffffff8211156106b0576106af610812565b5b601f19601f8301169050602081019050919050565b600081519050919050565b600082825260208201905092915050565b60008115159050919050565b6000819050919050565b82818337600083830152505050565b60005b83811015610724578082015181840152602081019050610709565b83811115610733576000848401525b50505050565b6000600282049050600182168061075157607f821691505b60208210811415610765576107646107e3565b5b50919050565b6000610776826106ed565b91507fffffffffffffffffffffffffffffffffffffffffffffffffffffffffffffffff8214156107a9576107a86107b4565b5b600182019050919050565b7f4e487b7100000000000000000000000000000000000000000000000000000000600052601160045260246000fd5b7f4e487b7100000000000000000000000000000000000000000000000000000000600052602260045260246000fd5b7f4e487b7100000000000000000000000000000000000000000000000000000000600052604160045260246000fd5b6000601f19601f8301169050919050565b61085b816106ed565b811461086657600080fd5b5056fea26469706673582212206edeac91e24fe78c146abd083f5ad19073cb88072f47af3d3731b82368677a9264736f6c63430008000033",
  "immutableReferences": {},
  "source": "// SPDX-License-Identifier: MIT\r\npragma solidity ^0.8.0;\r\n\r\ncontract ToDoList {\r\n    uint public taskCount = 0;\r\n\r\n    struct Task {\r\n        uint id;\r\n        string content;\r\n        bool completed;\r\n    }\r\n\r\n    mapping(uint => Task) public tasks;\r\n\r\n    event TaskCreated(uint id, string content, bool completed);\r\n    event TaskCompleted(uint id, bool completed);\r\n\r\n    function createTask(string memory _content) public {\r\n        taskCount++;\r\n        tasks[taskCount] = Task(taskCount, _content, false);\r\n        emit TaskCreated(taskCount, _content, false);\r\n    }\r\n\r\n    function toggleCompleted(uint _id) public {\r\n        Task memory _task = tasks[_id];\r\n        _task.completed = !_task.completed;\r\n        tasks[_id] = _task;\r\n        emit TaskCompleted(_id, _task.completed);\r\n    }\r\n}\r\n",
  "sourcePath": "C:\\Users\\NYO\\Documents\\Websites\\Web3-todo-list\\decentralized-todo-list\\contracts\\ToDoList.sol",
  "compiler": {
    "name": "solc",
    "version": "0.8.0+commit.c7dfd78e.Emscripten.clang"
  },
  "schemaVersion": "3.4.16",
  "updatedAt": "2024-07-07T03:54:54.395Z",
  "devdoc": {
    "kind": "dev",
    "methods": {},
    "version": 1
  },
  "userdoc": {
    "kind": "user",
    "methods": {},
    "version": 1
  }
}